:020000040000FA
:100000000C9462000C948A000C948A000C948A0070
:100010000C948A000C948A000C948A000C948A0038
:100020000C948A000C948A000C948A000C948A0028
:100030000C948A000C948A000C948A000C948A0018
:100040000C94E0030C948A000C94AE030C94880387
:100050000C948A000C948A000C948A000C948A00F8
:100060000C948A000C948A000000000024002700F1
:100070002A0000000000250028002B0000000008D6
:10008000000201000003040700000000000000005F
:1000900000000000230026002900040404040404D6
:1000A0000404020202020202030303030303010227
:1000B00004081020408001020408102001020408F6
:1000C00010206F0411241FBECFEFD8E0DEBFCDBFDC
:1000D00022E0A4EAB1E001C01D92A53AB207E1F71F
:1000E00011E0A0E0B1E0EEE9F3E102C005900D926D
:1000F000A43AB107D9F710E0C2E6D0E004C02197D6
:10010000FE010E94C709C136D107C9F70E94AE049B
:100110000C94CD090C940000AF92BF92CF92DF9265
:10012000EF92FF920F931F93CF93DF936C017B01AC
:100130008B01040F151FEB015E01AE18BF08C0173D
:10014000D10759F06991D601ED91FC910190F081B0
:10015000E02DC6010995892B79F7C501DF91CF9173
:100160001F910F91FF90EF90DF90CF90BF90AF90D5
:100170000895FC01538D448D252F30E0842F90E0AD
:10018000821B930B541710F0CF9608950197089592
:10019000FC01918D828D981761F0A28DAE0FBF2F5B
:1001A000B11D5D968C91928D9F5F9F73928F90E0B1
:1001B00008958FEF9FEF0895FC01918D828D981720
:1001C00031F0828DE80FF11D858D90E008958FEF5D
:1001D0009FEF0895FC01918D228D892F90E0805C26
:1001E0009F4F821B91098F739927089582EC91E0AC
:1001F0000E94EA0021E0892B09F420E0822F089573
:1002000080E090E0892B29F00E94F60081110C9487
:1002100000000895FC01A48DA80FB92FB11DA35AA9
:10022000BF4F2C91848D90E001968F739927848F16
:10023000A689B7892C93A089B1898C918370806439
:100240008C93938D848D981306C00288F389E02DDA
:1002500080818F7D80830895EF92FF920F931F938B
:10026000CF93DF93EC0181E0888F9B8D8C8D981369
:100270001AC0E889F989808185FF15C09FB7F89475
:10028000EE89FF896083E889F989808183708064C1
:1002900080839FBF81E090E0DF91CF911F910F910C
:1002A000FF90EF900895F62E0B8D10E00F5F1F4F1B
:1002B0000F731127E02E8C8D8E110CC00FB607FC2A
:1002C000FACFE889F989808185FFF5CFCE010E94B8
:1002D0000A01F1CFEB8DEC0FFD2FF11DE35AFF4F1B
:1002E000F0829FB7F8940B8FEA89FB898081806246
:1002F000CFCFCF93DF93EC01888D8823B9F0AA8903
:10030000BB89E889F9898C9185FD03C0808186FDD0
:100310000DC00FB607FCF7CF8C9185FFF2CF80811F
:1003200085FFEDCFCE010E940A01E9CFDF91CF9189
:100330000895833081F028F4813099F08230A9F05B
:1003400008958730A9F08830C9F08430B1F48091E5
:1003500080008F7D03C0809180008F778093800024
:10036000089584B58F7784BD089584B58F7DFBCFC4
:100370008091B0008F778093B00008958091B00095
:100380008F7DF9CFCF93DF93282F30E0F901E45828
:10039000FF4F8491F901E255FF4FD491F901E656E0
:1003A000FF4FC491CC23A1F081110E949901EC2F41
:1003B000F0E0EE0FFF1FE057FF4FA591B491EC91D5
:1003C000ED2381E090E009F480E0DF91CF91089582
:1003D00080E090E0FACF1F93CF93DF93282F30E097
:1003E000F901E458FF4F8491F901E255FF4FD49190
:1003F000F901E656FF4FC491CC23A9F0162F8111C5
:100400000E949901EC2FF0E0EE0FFF1FEE58FF4F16
:10041000A591B4918FB7F894EC91111108C0D095C3
:10042000DE23DC938FBFDF91CF911F910895DE2BE8
:10043000F8CFCF93DF9390E0FC01E255FF4F24917A
:1004400086569F4FFC0184918823D1F090E0880F5D
:10045000991FFC01E859FF4FA591B491FC01EE589A
:10046000FF4FC591D49161110EC09FB7F8948C9144
:10047000E22FE0958E238C932881E223E8839FBFAF
:10048000DF91CF9108958FB7F894EC91E22BEC9324
:100490008FBFF6CF3FB7F8948091A9019091AA0140
:1004A000A091AB01B091AC0126B5A89B05C02F3F30
:1004B00019F00196A11DB11D3FBFBA2FA92F982F8A
:1004C0008827BC01CD01620F711D811D911D42E085
:1004D000660F771F881F991F4A95D1F708958F924D
:1004E0009F92AF92BF92CF92DF92EF92FF924B0119
:1004F0005C010E944A026B017C010E944A026C1955
:100500007D098E099F09683E734081059105A8F316
:1005100021E0821A9108A108B10888EEC80E83E094
:10052000D81EE11CF11C81149104A104B10429F727
:10053000FF90EF90DF90CF90BF90AF909F908F9003
:1005400008952FB7F8946091A5017091A60180914C
:10055000A7019091A8012FBF0895FF920F931F93B9
:10056000CF93DF938B0161E00E94EB0187E0F82ECF
:10057000F09EE001F19ED00D1124C050DF4F698143
:100580008BE00E94EB016A818CE00E94EB016B81A1
:1005900088E00E94EB016C8189E00E94EB016D8193
:1005A0008AE00E94EB016E8183E10E94EB010F5F04
:1005B0001F4FF09EF001F19EF00D1124E050FF4F0F
:1005C00060818DE0DF91CF911F910F91FF900C948E
:1005D000EB01FC0101900020E9F73197AF01481BC6
:1005E000590BBC0182EC91E00C948C008F929F928D
:1005F000AF92BF920F931F93CF93DF93CDB7DEB728
:10060000A1970FB6F894DEBF0FBECDBF19A242303E
:1006100008F44AE08E010F5D1F4F842E912CB12CFF
:10062000A12CA50194010E946F09E62FB901CA010E
:10063000EA30F4F4E05DD801EE938D01232B242BF6
:10064000252B79F790E080E0109719F0CD010E94FA
:10065000E902A1960FB6F894DEBF0FBECDBFDF91C1
:10066000CF911F910F91BF90AF909F908F90089561
:10067000E95CE1CFEF92FF920F931F93CF93DF934B
:1006800000D000D0CDB7DEB782EC91E00E94C80068
:1006900082EC91E00E94C8008E010F5F1F4F78012D
:1006A0008A3341F0F80181938F0182EC91E00E943E
:1006B000C800F6CFC7010E944E08182F82EC91E0C7
:1006C0000E94C8008053990B8230910520F4682F56
:1006D000812F0E94EB0182EC91E00E94C8008A30D9
:1006E00011F08D30C1F782EC91E00E94DC008A307D
:1006F00021F482EC91E00E94C8000F900F900F90BF
:100700000F90DF91CF911F910F91FF90EF9008957F
:100710001F920F920FB60F9211242F933F934F9376
:100720005F936F937F938F939F93AF93BF93EF9359
:10073000FF9382EC91E00E940A01FF91EF91BF913B
:10074000AF919F918F917F916F915F914F913F9169
:100750002F910F900FBE0F901F9018951F920F9220
:100760000FB60F9211242F938F939F93EF93FF93C4
:10077000E091D201F091D3018081E091D801F09114
:10078000D90182FD1BC090818091DB018F5F8F7347
:100790002091DC01821741F0E091DB01F0E0EE53A3
:1007A000FE4F958F8093DB01FF91EF919F918F9189
:1007B0002F910F900FBE0F901F9018958081F4CF4E
:1007C0001F920F920FB60F9211242F933F938F9386
:1007D0009F93AF93BF938091A5019091A601A091A3
:1007E000A701B091A8013091A40123E0230F2D3778
:1007F00058F50196A11DB11D2093A4018093A50178
:100800009093A601A093A701B093A8018091A9019C
:100810009091AA01A091AB01B091AC010196A11DEC
:10082000B11D8093A9019093AA01A093AB01B0934D
:10083000AC01BF91AF919F918F913F912F910F90FC
:100840000FBE0F901F90189526E8230F0296A11D4A
:10085000B11DD2CFCF92DF92EF92FF920F931F93F1
:10086000E82FF92F05C0015011092109310961F163
:10087000908196239417B9F305C0015011092109FD
:10088000310911F1908196239413F7CFC12CD12C0B
:10089000E12CF12C0AC08FEFC81AD80AE80AF80A2E
:1008A0000C151D052E053F0579F0808186238417E0
:1008B00091F36C2D7D2D8E2D9F2D1F910F91FF900B
:1008C000EF90DF90CF90089560E070E080E090E0DE
:1008D0001F910F91FF90EF90DF90CF900895E2EC81
:1008E000F1E01382128288EE93E0A0E0B0E084830E
:1008F0009583A683B78386E691E09183808385EC18
:1009000090E09587848784EC90E09787868780ECD9
:1009100090E0918B808B81EC90E0938B828B82ECCA
:1009200090E0958B848B86EC90E0978B868B118E74
:10093000128E138E148EEFE5F2E016821782108667
:100940001186128613861486158616861786108AD7
:10095000118A128A138A148A158A0895789484B5A4
:10096000826084BD84B5816084BD85B5826085BDAB
:1009700085B5816085BD80916E00816080936E0039
:10098000109281008091810082608093810080912B
:1009900081008160809381008091800081608093DC
:1009A00080008091B10084608093B1008091B0009C
:1009B00081608093B00080917A00846080937A0097
:1009C00080917A00826080937A0080917A008160C1
:1009D00080937A0080917A00806880937A001092E8
:1009E000C1001092A1021092A2021092A3021092D2
:1009F000A40210926102109262021092630210929D
:100A000064020E94A1026B017C014B015C0128EB96
:100A1000820E2BE0921EA11CB11C0E94A1026C153B
:100A20007D058E059F0528F086169706A806B9064F
:100A3000A0F768EE73E080E090E00E946F02E09122
:100A4000D201F091D30182E08083E091CE01F09158
:100A5000CF011082E091D001F091D10180E180833B
:100A60001092DA01E091D601F091D70186E08083FF
:100A7000E091D401F091D501808180618083E09183
:100A8000D401F091D501808188608083E091D40108
:100A9000F091D501808180688083E091D401F0914C
:100AA000D50180818F7D80830E94A10260936102C5
:100AB00070936202809363029093640284E791E0F2
:100AC0000E94E9020E94A1026B017C014B015C01C2
:100AD0003AE0830E911CA11CB11C0E94A1026C156E
:100AE0007D058E059F0528F086169706A806B9068F
:100AF000A0F781E0809375020E94A10260936102D9
:100B000070936202809363029093640285E891E09F
:100B10000E94E90261E086E00E94190261E087E03C
:100B20000E94190261E085E00E94190261E084E000
:100B30000E94190260E082E00E94190261E083E0F5
:100B40000E94190260E08EE00E94190260E08FE0CE
:100B50000E94190260E080E10E94190260E081E1D8
:100B60000E94190260E082E10E9419020E94A10223
:100B70006093AF017093B0018093B1019093B20183
:100B800082E08093B60143E0242E312C54EF852E71
:100B900099249394A12CB12C0E94A102672B682B5D
:100BA000692B09F4EFC00E94A1020091BE011091CF
:100BB000BF012091C0013091C10160177107820708
:100BC000930708F46EC10091BE011091BF012091FE
:100BD000C0013091C1016B017C01C01AD10AE20A47
:100BE000F30A97018601083E13402105310508F4F8
:100BF000D1C06093BE017093BF018093C0019093F8
:100C0000C10180926D0290926E02A0926F02B0922A
:100C1000700210927102109272021092730210927E
:100C200074028091650290916602A0916702B09172
:100C300068028093690290936A02A0936B02B0935A
:100C40006C020E94A1026093650270936602809319
:100C500067029093680282EC91E00E94DC00843687
:100C600011F40E943A030E94A10260936102709302
:100C7000620280936302909364020E94A1026B015E
:100C80007C018CE891E00E94E9024AE061E070E0BA
:100C900080E090E00E94F60283E991E00E94E90280
:100CA0004AE0C701B6010E94F60285E991E00E9480
:100CB000E9028091650290916602A0916702B0916D
:100CC0006802A7019601281B390B4A0B5B0BCA016E
:100CD000B9014AE00E94F60285E991E00E94E9022A
:100CE000609165027091660280916702909168023E
:100CF0000091690210916A0220916B0230916C029E
:100D0000601B710B820B930B4AE00E94F60287E98D
:100D100091E00E94E9020E94A1024AE00E94F602CC
:100D200089E991E00E94E90280EA91E00E94E902EB
:100D30000E94A1022B013C017C016B0135E0C30E36
:100D4000D11CE11CF11C0E94A102641575058605E9
:100D5000970528F0C616D706E806F906A0F782EC34
:100D600091E00E94DC00843611F40E943A030E9454
:100D7000A10260936502709366028093670290936C
:100D8000680208C00E94A1026230710581059105C8
:100D900008F009CF60E083E00E94EB01C1010197F8
:100DA000F1F761E083E00E94EB0183E290E00197BC
:100DB000F1F760E083E00E94EB01E0EBF0E064918A
:100DC000ECE9F0E08491E82FF0E0EE0FFF1FE05730
:100DD000FF4F8591949100E412E42FE030E0462F1C
:100DE0000E942A04611571058105910529F06F5F44
:100DF0007F4F8F4F9F4F9F700E94760826E933E404
:100E00004BE85CE30E94B1080E9491097093BD0118
:100E10006093BC0182E10E94C201EC0177247394CB
:100E2000892B09F0712C7092BB0181E10E94C201F3
:100E30007C0181E0E114F10409F080E08093BA01C3
:100E400080E10E94C2018C0144244394892B09F063
:100E5000412C4092B9018FE00E94C2016C0181E0F7
:100E6000C114D10409F080E08093B80182E10E94AE
:100E7000C20155245394009709F0512C5092B701A8
:100E8000E091B601E150E73060F5F0E0E65BF84F45
:100E90000C94C709B3075A07C6071608CC07F20710
:100EA0003D086093BE017093BF018093C001909391
:100EB000C10189CE1092B3011092B4011092B50114
:100EC000CD2B11F0892BD1F50E94A1026093AF01C7
:100ED0007093B0018093B1019093B201F5E0F0936B
:100EE000B6010E94A1026B017C01CDE0D0E00DE0D3
:100EF00010E00C1B1D0B0E94A1026C197D098E09CC
:100F00009F09683E73408105910508F0B3C0B801A0
:100F100081E090E00E94AD026BE070E080E090E044
:100F20000E946F02BE0182E090E00E94AD026BE081
:100F300070E080E090E00E946F02DDCF012B21F491
:100F4000CD2811F4EF2869F20E94A1026093AF014D
:100F50007093B0018093B1019093B20124E0C22E4E
:100F6000C092B601BECFCD2B19F0892B09F0B9CFB5
:100F700092E0D92ED092B6018091AD019091AE0150
:100F800001969093AE018093AD01ABCFCD2B81F351
:100F9000892B09F4A6CFECCF0E94A1020091AF01EA
:100FA0001091B0012091B1013091B201601B710B21
:100FB000820B930B6C3271408105910568F480912E
:100FC000B3018111582E5092B3018091B501811166
:100FD000782E7092B50185CF4092B40136E03093FF
:100FE000B6017FCF0E94A1020091AF011091B00124
:100FF0002091B1013091B201601B710B820B930BF8
:10100000683771058105910508F46BCF8091B401B3
:101010009091B301911140C0811104C083E080938D
:10102000B6015FCF42E04093B6015BCF0E94A102C0
:10103000C090AF01D090B001E090B101F090B2014A
:101040006C197D098E099F09653671058105910529
:1010500008F447CF012B09F044CF8091AD01909166
:10106000AE0101969093AE018093AD0152E0509392
:10107000B60137CF219708F03ACF80E0C82E80E044
:10108000D82ECD2809F488CD0E94F600882309F4D3
:1010900083CD0E94000080CD81E0C1CFFC01882774
:1010A0009927E89421912032E9F3293010F02E306D
:1010B000C8F32B3241F02D3239F4689404C00E94F9
:1010C0006C08820F911D219120532A30C0F31EF429
:1010D000909581959F4F08957AE0979F902D879FD7
:1010E000802D910D11240895E89409C097FB3EF4DA
:1010F00090958095709561957F4F8F4F9F4F992365
:10110000A9F0F92F96E9BB279395F69587957795E2
:101110006795B795F111F8CFFAF4BB0F11F460FFA2
:101120001BC06F5F7F4F8F4F9F4F16C0882311F0FA
:1011300096E911C0772321F09EE8872F762F05C00E
:10114000662371F096E8862F70E060E02AF09A95A9
:10115000660F771F881FDAF7880F9695879597F99E
:1011600008950E94C4080C9435090E94270938F09C
:101170000E942E0920F0952311F00C941E090C9466
:10118000240911240C9469090E94460970F3959F63
:10119000C1F3950F50E0551F629FF001729FBB276E
:1011A000F00DB11D639FAA27F00DB11DAA1F649F0A
:1011B0006627B00DA11D661F829F2227B00DA11DBD
:1011C000621F739FB00DA11D621F839FA00D611D43
:1011D000221F749F3327A00D611D231F849F600D64
:1011E000211D822F762F6A2F11249F5750409AF08D
:1011F000F1F088234AF0EE0FFF1FBB1F661F771F19
:10120000881F91505040A9F79E3F510580F00C94E3
:101210001E090C9469095F3FE4F3983ED4F3869568
:1012200077956795B795F795E7959F5FC1F7FE2B83
:10123000880F911D9695879597F9089597F99F675F
:1012400080E870E060E008959FEF80EC089500244E
:101250000A941616170618060906089500240A941B
:1012600012161306140605060895092E0394000CA1
:1012700011F4882352F0BB0F40F4BF2B11F460FF30
:1012800004C06F5F7F4F8F4F9F4F089557FD905859
:10129000440F551F59F05F3F71F04795880F97FB3A
:1012A000991F61F09F3F79F08795089512161306F4
:1012B0001406551FF2CF4695F1DF08C01616170623
:1012C0001806991FF1CF8695710561050894089558
:1012D000E894BB2766277727CB0197F90895A1E209
:1012E0001A2EAA1BBB1BFD010DC0AA1FBB1FEE1FA0
:1012F000FF1FA217B307E407F50720F0A21BB30BEB
:10130000E40BF50B661F771F881F991F1A9469F766
:1013100060957095809590959B01AC01BD01CF01C2
:1013200008950E9498096894B1110C946909089570
:101330000E944E0988F09F5798F0B92F9927B7510E
:10134000B0F0E1F0660F771F881F991F1AF0BA9569
:10135000C9F714C0B13091F00E946809B1E0089556
:101360000C946809672F782F8827B85F39F0B93F48
:10137000CCF3869577956795B395D9F73EF490951C
:101380008095709561957F4F8F4F9F4F0895EE0F19
:10139000FF1F0590F491E02D0994F894FFCF000110
:1013A0000101010101000000000101000100010133
:1013B0000001010100000101010101010000010122
:1013C0000001010001010001010101010100010012
:1013D0000000000101010101010101010101000002
:1013E00001010101000101010000000101010001F2
:1013F00001010101010000000100010100000000E5
:10140000000000002C018C00B9007901EA00C8003E
:10141000DC00564D4450565F317C315F564D445090
:10142000560A00564D4450525F00564D4450455F99
:10143000003A323A007C005F564D445045000D0A98
:021440000000AA
:107E0000112484B714BE81FFF0D085E080938100F7
:107E100082E08093C00088E18093C10086E0809377
:107E2000C20080E18093C4008EE0C9D0259A86E02C
:107E300020E33CEF91E0309385002093840096BBD3
:107E4000B09BFECF1D9AA8958150A9F7CC24DD24C4
:107E500088248394B5E0AB2EA1E19A2EF3E0BF2EE7
:107E6000A2D0813461F49FD0082FAFD0023811F036
:107E7000013811F484E001C083E08DD089C08234E0
:107E800011F484E103C0853419F485E0A6D080C0E4
:107E9000853579F488D0E82EFF2485D0082F10E0AE
:107EA000102F00270E291F29000F111F8ED06801E7
:107EB0006FC0863521F484E090D080E0DECF843638
:107EC00009F040C070D06FD0082F6DD080E0C81688
:107ED00080E7D80618F4F601B7BEE895C0E0D1E017
:107EE00062D089930C17E1F7F0E0CF16F0E7DF06D8
:107EF00018F0F601B7BEE89568D007B600FCFDCFD4
:107F0000A601A0E0B1E02C9130E011968C91119780
:107F100090E0982F8827822B932B1296FA010C0160
:107F200087BEE89511244E5F5F4FF1E0A038BF0790
:107F300051F7F601A7BEE89507B600FCFDCF97BE46
:107F4000E89526C08437B1F42ED02DD0F82E2BD052
:107F50003CD0F601EF2C8F010F5F1F4F84911BD097
:107F6000EA94F801C1F70894C11CD11CFA94CF0C13
:107F7000D11C0EC0853739F428D08EE10CD085E9AC
:107F80000AD08FE07ACF813511F488E018D01DD067
:107F900080E101D065CF982F8091C00085FFFCCF94
:107FA0009093C60008958091C00087FFFCCF809118
:107FB000C00084FD01C0A8958091C6000895E0E648
:107FC000F0E098E1908380830895EDDF803219F02E
:107FD00088E0F5DFFFCF84E1DECF1F93182FE3DFCA
:107FE0001150E9F7F2DF1F91089580E0E8DFEE27F6
:047FF000FF270994CA
:027FFE00040479
:00000001FF
